:020000040800F2
:1000000000500020C5010008C9010008CB0100080C
:10001000E1010008E3010008F90100080000000008
:100020000000000000000000000000000F020008B7
:10003000110200080000000013020008510500082A
:1000400029020008290200082902000829020008E4
:1000500029020008290200082902000829020008D4
:1000600029020008290200082902000829020008C4
:1000700029020008290200082902000829020008B4
:1000800029020008290200082902000829020008A4
:100090002902000829020008290200082902000894
:1000A0002902000829020008290200082902000884
:1000B0002902000829020008290200082902000874
:1000C0002902000829020008290200082902000864
:1000D0002902000829020008290200082902000854
:1000E0002902000829020008290200080000000077
:1000F0000000000000000000000000000000000000
:1001000000000000000000005FF808F107B500F0F3
:100110000FF9214A214B22498B4226D30021214B42
:10012000214A934226D300F00FF901A9684600F056
:10013000F7F800251D4E1E4CA41BA410AC421CDC7D
:1001400000251C4E1C4CA41BA410AC421ADC9DE8DC
:10015000030000F0FFF90646184D194C641BA4106B
:10016000002C14DC304600F0D7F852F8040F43F8A6
:10017000040BD1E743F8041BD3E756F82530984722
:100180000135DBE756F8253098470135DDE7013CBE
:1001900055F824309847E3E7940500080000002054
:1001A0001C0000201C000020240000205402000835
:1001B00054020008540200085402000854020008C7
:1001C0005402000814480047FEE71EF0040F0CBF5D
:1001D000EFF30880EFF309807146104A1047FEE7FD
:1001E000FEE71EF0040F0CBFEFF30880EFF3098069
:1001F00071460B4A1047FEE71EF0040F0CBFEFF3E9
:100200000880EFF309807146064A1047FEE7FEE7D3
:10021000FEE7FEE7704700000D010008DF0100085F
:0A022000F70100080D020008FEE7D8
:10022C0098050008000000201C000020980500081C
:10023C0000000000000000001C0000202400002032
:08024C000000000000000000AA
:10025400CB782DE9F041DA0648BF8A780E8803F09E
:100264000F0548BF154316F0FF0F1AD000214FF0B9
:10027400010E4FF00F0C02680EFA01F737EA06047C
:100284000BD18C000CFA04F822EA080205FA04F4F3
:10029400282B42EA040225D1476101310829EBD118
:1002A4000260FF2E1CD900214FF0010E4FF00F0CFD
:1002B400426801F108040EFA04F434EA06070BD18B
:1002C4008F000CFA07F822EA080205FA07F7282B30
:1002D40042EA07020AD1446101310829E9D14260A6
:1002E400BDE8F081482B08BF0761D6E7482B08BF5B
:1002F4000461F1E70161704741617047044B9A69F9
:1003040011B110439861704722EA0000FAE700BF78
:100314000010024008B500F017F800000123036044
:10032400014B0B60704700BF0000002008B500F0CF
:100334001DF8024B024A9A6008BD00BF00ED00E0C0
:100344000000000800F08AB8BFF34F8F0549064B40
:10035400CA6802F4E0621343CB60BFF34F8F00BF5F
:10036400FDE700BF00ED00E00400FA05374B82B062
:100374001A6842F001021A605968354A0A405A6004
:100384001A6822F0847222F480321A601A6822F405
:1003940080221A605A6822F4FE025A604FF41F0247
:1003A4009A600022009201921A6842F480321A6024
:1003B4001A6802F400320192009A01320092019A02
:1003C4001AB9009AB2F5A06FF2D11A6812F4003289
:1003D40018BF01220192019A012A05D04FF0006250
:1003E4001C4B9A6002B070471B4A116841F010011F
:1003F4001160116821F003011160116841F00201DC
:1004040011605A685A605A685A605A6842F48062A5
:100414005A605A6822F47C125A605A6842F4E8120C
:100424005A601A6842F080721A601A689201FCD508
:100434005A6822F003025A605A6842F002025A6073
:100444005A6802F00C02082AFAD1C7E700100240E9
:100454000000FFF800ED00E000200240114A124BBA
:10046400516801F00C01042901D008290AD00F4970
:10047400196052680E49C2F30312895C1A68CA40B3
:100484001A60704751685068C1F38341C00301F199
:10049400020102D407484143EAE750688003F9D4D3
:1004A4000248F8E7001002401800002000127A0009
:1004B4000800002000093D0037B501211020FFF796
:1004C4001DFF03234FF480558DF806301023074C8D
:1004D40001A920468DF80730ADF80450FFF7B8FEA7
:1004E40029462046FFF706FF03B030BD0010014047
:1004F4004FF47A72094B1B68B3FBF2F3013BB3F17F
:10050400807F09D2F021064A5360064B83F82310FA
:100514000023936007231360704700BF1800002076
:1005240010E000E000ED00E0024B18601A68002AB9
:10053400FCD1704720000020034B1A6812B11A68DE
:10054400013A1A60704700BF20000020FFF7F4BF93
:1005540070B5FFF7CDFF0024FFF7AEFF40F2EE26A3
:100564000B4D28464FF48051FFF7C6FE002C14BFF4
:1005740030464FF47A70FFF7D7FF4FF48051284686
:10058400FFF7B8FEFA20FFF7CFFF0134E9E700BF19
:040594000010014012
:100598001C00002000000000000000000000000017
:0C05A800010203040607080900A24A042F
:040000050800010DE1
:00000001FF
