:020000040800F2
:100000000050002021020008270200082B020008EF
:100010009D020008A1020008E9020008000000009B
:100020000000000000000000000000003103000894
:10003000350300080000000039030008710A0008B9
:100040004D0300084D0300084D0300084D03000850
:100050004D0300084D0300084D0300084D03000840
:100060004D0300084D0300084D0300084D03000830
:100070004D0300084D0300084D0300084D03000820
:100080004D0300084D0300084D0300084D03000810
:100090004D0300084D0300084D0300084D03000800
:1000A0004D0300084D0300084D0300084D030008F0
:1000B0004D0300084D0300084D0300084D030008E0
:1000C0004D0300084D0300084D0300084D030008D0
:1000D0004D0300084D0300084D0300084D030008C0
:1000E0004D0300084D0300084D0300080000000008
:1000F0000000000000000000000000000000000000
:1001000000000000000000005FF808F100B583B0B7
:1001100000F0ECFA304B314A1360314A1360314B36
:10012000314A03E011681960043304322F498B42CD
:10013000F8D32A4B1A682E4B9A4200D0FEE7284B80
:100140001A682C4B9A42F9D1234B2B4A13602B4A45
:1001500013602B4B02E000221A600433294A9342B9
:10016000F9D3254B1B6813B9244B1B6803B1FEE779
:1001700000F0C8FA694601A800F04AFA224B234C65
:10018000E41AA4100025AC4214DC214B214CE41AE3
:10019000A4100025AC4213DC0099019800F06CFC1F
:1001A00005461D4B1D4CE41AA410002C0EDC2846FD
:1001B00000F000FA144B53F8253098470135E2E778
:1001C000134B53F8253098470135E3E7013C124BB8
:1001D00053F824309847E8E7BABADECA0000002096
:1001E0008400002000000020D815000888000020AE
:1001F000785634123254769888000020240100206A
:1002000088000020280100207803000878030008F7
:1002100078030008780300087803000878030008D2
:1002200008B5FFF773FF00BEFEE71EF0040F0CBF1A
:10023000EFF30880EFF309807146414A10472DE93A
:10024000F04182B004468846124B5E6B9F6B9D6AFC
:100250001B6B13F0020F03D00E4BDB6A002B0CDB81
:100260000D4800F0E7F9CDF800803B4632462946BC
:10027000204600F04BFA00BEFEE74BF6AB6100F003
:10028000BFFA0028ECD04FF00042024BDA6202B015
:10029000BDE8F08100ED00E04015000800BEFEE77B
:1002A0001EF0040F0CBFEFF30880EFF309807146D6
:1002B000244A10472DE9F04182B004468846084B95
:1002C0005E6B9F6B9D6A074800F0B4F9CDF8008023
:1002D0003B4632462946204600F018FA00BEFEE7AB
:1002E00000ED00E0501500081EF0040F0CBFEFF306
:1002F0000880EFF309807146134A10472DE9F04159
:1003000082B004468846084B5E6B9F6B9D6A074827
:1003100000F090F9CDF800803B4632462946204651
:1003200000F0F4F900BEFEE700ED00E05C15000807
:1003300000BEFEE700BEFEE700BEFEE7704700001D
:100340003F020008B5020008FD02000800BEFEE7FB
:10035000D81500080000002088000020D8150008EB
:10036000000000000000000088000020280100209C
:08037000000000000000000085
:10037800F8B505460C46484B98421BD003F58063F8
:10038800984217D003F58063984213D003F5806331
:1003980098420FD003F5806398420BD003F5806331
:1003A800984207D003F58063984203D0B2213B48B6
:1003B80000F032F9E3788BB1042B0FD0282B0DD045
:1003C800482B0BD0142B09D0102B07D01C2B05D091
:1003D800182B03D0B321314800F01EF9238893B1BC
:1003E800E37803F00F06304613F0100F06D0A37819
:1003F800013BDBB2022B0BD8A0783043237833B310
:100408002E6800230BE0B421244800F005F9E7E743
:10041800BB21224800F000F9EEE76A610133072B9F
:1004280014D801229A40218832EA0101F6D19900B4
:100438000F278F4026EA070600FA01F10E43E178FC
:100448002829EAD04829E9D12A61E7E72E602388DC
:10045800FF2B20D96E68002302E06A6115E00133A2
:10046800072B17D803F1080101228A40218832EAB4
:100478000101F4D199000F278F4026EA070600FAF8
:1004880001F10E43E1782829E7D0E1784829E6D13F
:100498002A61E4E76E60F8BD000801408013000897
:1004A80038B504460D46144B98421CD003F58063BA
:1004B800984218D003F58063984214D003F58063FE
:1004C800984210D003F5806398420CD003F58063FE
:1004D800984208D003F58063984204D040F269112D
:1004E800064800F099F80DB1256138BD4FF4B57193
:1004F800024800F091F8F7E700080140801300086F
:1005080038B504460D46144B98421CD003F5806359
:10051800984218D003F58063984214D003F580639D
:10052800984210D003F5806398420CD003F580639D
:10053800984208D003F58063984204D040F27911BC
:10054800064800F069F80DB1656138BD4FF4BD711A
:10055800024800F061F8F7E700080140801300083E
:1005680038B504460D460E4B034003B920B940F296
:100578004A410C4800F050F8012D04D940F24B4193
:10058800084800F049F82DB9074A936923EA04049A
:10059800946138BD044B9A6914439C6138BD00BF0F
:1005A8000200C0FFB413000800100240FEE700007C
:1005B80008B5034800F052F80120FFF7F7FF00BF25
:1005C800E413000808B503460C4A12685AB10B4AEE
:1005D8001068033323F003030344094A934206D8FF
:1005E800064A136008BD0749044A1160EFE700F0A6
:1005F80073FA0C2303604FF0FF3008BD8C00002015
:10060800004C00202801002001230360014B0B60EF
:10061800704700BF0400002008B50A46014602489A
:1006280000F004F8FFF7C4FFF81300080FB400B592
:1006380083B004AB53F8042B01938021064800F0E3
:1006480085FA002803DD0146034800F047F803B0A7
:100658005DF804EB04B070479400002010B5044620
:1006680000F040FA0146204600F038F8012102481F
:1006780000F034F810BD00BFBC1400082DE9F043A9
:1006880085B004460F4643560BB10E461EE00425BE
:1006980028462146ABBE0446384605B0BDE8F0837F
:1006A80014F9011B04AA1A4402F8101C0133AB42C6
:1006B800F6D304AA1344002203F8102CE9464FF09D
:1006C800040840464946ABBE8046761B002EE3D060
:1006D8003546102E28BF10250023E8E708B5FFF798
:1006E800CDFF08BD08B500F0FDF8024B024A9A603C
:1006F80008BD00BF00ED00E00000000808B500F0EC
:1007080019F908BDF8B504460D4617461E46274890
:10071800FFF78CFF21682648FFF788FF61682548A6
:10072800FFF784FFA1682448FFF780FFE1682348AA
:10073800FFF77CFF21692248FFF778FF61692148AC
:10074800FFF774FFA1692048FFF770FFE1691F48B0
:10075800FFF76CFF1E48FFF769FF29461D48FFF7A2
:1007680065FF1D4CE16A1D48FFF760FF216B1C48BF
:10077800FFF75CFFE16B1B48FFF758FF15F0800F90
:100788000AD115F4004F0CD11748FFF74FFF06990F
:100798001648FFF74BFFF8BD39461548FFF746FFE7
:1007A800EFE731461348FFF741FFEDE7241400084F
:1007B8003414000844140008541400086414000891
:1007C800741400088414000894140008A414000881
:1007D800B4140008C014000800ED00E0D0140008AC
:1007E800E0140008F0140008201500082815000877
:1007F800001500081015000883691A888A4201D07C
:10080800002070470268033A012A03D80233836143
:10081800012070470020704782B0002301930093A5
:100828002C4A136843F4803313602A4B1B6803F483
:1008380000330093019B01330193009B1BB9019B7B
:10084800B3F5A06FF1D1234B1B6813F4003F06D01A
:1008580001230093009B012B04D002B070470023B2
:100868000093F7E71C4B1A6842F010021A601A68E6
:1008780022F003021A601A6842F002021A60A3F515
:1008880080535A685A605A685A605A6842F48062BB
:100898005A605A6822F47C125A605A6842F4E81284
:1008A8005A601A6842F080721A600A4B1B6813F08B
:1008B800007FFAD0074B5A6822F003025A605A6840
:1008C80042F002025A60034B5B6803F00C03082BEA
:1008D800F9D1C2E7001002400020024008B5FFF736
:1008E8009BFF08BD08B5104B1A6842F001021A6058
:1008F80059680E4A0A405A601A6822F0847222F433
:1009080080321A601A6822F480221A605A6822F427
:10091800FE025A604FF41F029A60FFF7DFFF4FF0A4
:100928000062034B9A6008BD001002400000FFF807
:1009380000ED00E01F4B5B6803F00C03042B15D09F
:10094800082B17D01BB11C4A1C4B1A6002E01A4A2C
:100958001A4B1A60174B5B68C3F30313184AD35C2E
:10096800DAB216490B68D3400B607047124A134B32
:100978001A60EFE70F4A53685268C3F383430233A0
:1009880012F4803F0AD00B4A526812F4003F0BD091
:100998000C4A02FB03F3094A1360DBE7094A02FB2E
:1009A80003F3064A1360D5E7034A02FB03F3034A3D
:1009B8001360CFE70010024000127A001C000020EC
:1009C8000C00002000093D0030B583B00121102043
:1009D800FFF7C6FD4FF48055ADF8045003238DF89A
:1009E800063010238DF80730054C01A92046FFF783
:1009F800BFFC29462046FFF753FD03B030BD00BFBA
:100A0800001001400A4B1B680A4AA2FB03239B09FA
:100A1800013BB3F1807F09D2074A5360F021074BAD
:100A280083F823100023936007231360704700BFE7
:100A38001C000020D34D621010E000E000ED00E043
:100A4800034B1860024B1B68002BFBD1704700BF9B
:100A580020010020034B1B681BB1024A1368013BAD
:100A6800136070472001002008B5FFF7F3FF08BDA9
:100A780010B51448FFF7F2FD134B19681348FFF738
:100A8800D5FDFFF7BFFFFFF79FFF002410E04FF4ED
:100A98007A70FFF7D5FF4FF480510D48FFF700FD3E
:100AA800FA20FFF7CDFF013421460A48FFF7BEFDC3
:100AB8004FF480510648FFF723FD002CE7D040F2A1
:100AC800EE20E6E76C1500081C00002080150008E1
:100AD8000010014098150008014B1868704700BFC6
:100AE80020000020034613F8012B002AFBD1181A16
:100AF8000138704730B5141E05469BB0184605DA14
:100B08008B234FF0FF302B601BB030BD4FF40273C6
:100B1800ADF80C300CBF234604F1FF330293059364
:100B28004FF6FF7300910491ADF80E3002461E9BFC
:100B38006946284600F074F8431CBCBF8B232B6021
:100B4800002CE1D00022009B1A70DDE707B5009366
:100B580013460A46014603480068FFF7CBFF03B077
:100B68005DF804FB200000202DE9F0478E688246DE
:100B78009E420C469146984635D88A8912F4906F61
:100B880031D00223256809696F1A656905EB4505A7
:100B980095FBF3F508F101033B449D4238BF1D4620
:100BA800530531D5294600F047FB064650B90C23BA
:100BB800CAF80030A3894FF0FF3043F04003A38107
:100BC800BDE8F0873A46216900F0C4FAA38923F406
:100BD800906343F08003A38126613E442660464625
:100BE8006561ED1BA560464528BF46464946324625
:100BF800206800F0BAFAA36800209B1BA360236852
:100C08001E442660BDE8F0872A4600F073FB0646BE
:100C18000028E1D12169504600F0C2FAC7E7000078
:100C28002DE9F04F9DB003938B8980461C060D4635
:100C380016460FD50B696BB9402100F0FDFA286004
:100C4800286128B90C23C8F800304FF0FF30C4E001
:100C580040236B610023099320238DF8293030232A
:100C68004FF0010B8DF82A3037463C4614F8013B0B
:100C7800002B3CD1B7EB060A0BD053463246294627
:100C88004046FFF771FF013000F0A280099B5344F2
:100C980009933B78002B00F09B8000234FF0FF3234
:100CA80004930793059206938DF853301A930522FF
:100CB8002178504800F040FA671C049BD8B9D9063F
:100CC80044BF20228DF853201A0744BF2B228DF8E9
:100CD800532022782A2A16D000210A20079A27466C
:100CE8003B780134303B092B50D9C9B111E0252B91
:100CF800C0D02746B9E73F4A3C46801A0BFA00F0B5
:100D080018430490D3E7039A111D12680391002A2F
:100D180001DB079204E0524243F002030792049376
:100D28003B782E2B0DD17B78791C2A2B32D1039B53
:100D380002371A1D1B680392002BB8BF4FF0FF3310
:100D480005932D4C03223978204600F0F5F938B187
:100D58004023001B03FA00F0049B0137034304936C
:100D68003978062225487E1C8DF8281000F0E4F911
:100D7800002835D0224BFBB9039B073323F0070328
:100D880008330393099B4B4409936DE700FB023238
:100D98000121A4E700230A24184605930F463A7850
:100DA8000131303A092A03D9002BCAD00590C8E787
:100DB80004FB00200123F1E703AB00932A46114B03
:100DC80004A94046AFF30080B0F1FF3F8146D9D176
:100DD800AB895B063FF539AF09981DB0BDE8F08FC8
:100DE80003AB00932A46074B04A9404600F084F859
:100DF800EAE700BFA4150008AA150008AE15000808
:100E080000000000710B00082DE9F04791461F46CD
:100E18008A680B6906469342B8BF1346C9F8003082
:100E280091F843200C46DDF8208012B10133C9F84F
:100E380000302368990642BFD9F800300233C9F858
:100E48000030256815F0060507D104F1190AE36892
:100E5800D9F800209B1A9D422ADB94F84330226877
:100E6800003318BF012392062FD404F143023946F8
:100E78003046C047013022D02368E56803F00603F6
:100E8800042B18BF0025D9F800204FF0000908BF2F
:100E9800AD1AA368226908BF25EAE5759342C4BF65
:100EA8009B1AED181A344D451BD10020BDE8F08778
:100EB8000123524639463046C047013003D14FF02E
:100EC800FF30BDE8F0870135C1E73020E11881F82F
:100ED80043005A1C94F845102244023382F8431008
:100EE800C3E70123224639463046C0470130E6D0E1
:100EF80009F10109D7E700002DE9F04317460A7EFA
:100F080085B06E2A984606460C460C9B01F1430EA6
:100F180000F0BC801AD8632A2ED00AD8002A00F024
:100F2800C880582A00F08A8004F1420584F84220DB
:100F38002AE0642A01D0692AF6D121681A6811F0DA
:100F4800800F23D0111D1960136827E0732A00F061
:100F5800B48008D86F2A2AD0702AE5D10A6842F0EE
:100F680020020A6003E0752A21D0782ADCD1782291
:100F78006F4984F8452064E01A6801F14205111DA3
:100F88001960136884F842300123A3E011F0400F80
:100F980002F104011960D7D0B2F90030002B03DA4E
:100FA8002D225B4284F8432062490A2217E0206818
:100FB800196810F0800F03D0081D18600B6806E050
:100FC80010F0400F01F104001860F7D00B886F2A69
:100FD80014BF0A2208225749002084F84300656894
:100FE800002DA560C0F29C80206820F004002060DD
:100FF800002B3FD1002D40F095807546082A0BD173
:101008002368DA0708D5236962689A42DEBF30236D
:1010180005F8013C05F1FF35AEEB05032361CDF87A
:1010280000803B4603AA21463046FFF7EDFE01301B
:1010380055D14FF0FF3005B0BDE8F08381F8452069
:101048003C492268186812F0800F00F104051D6001
:1010580001D0036802E05506FBD50388D00744BFDA
:1010680042F0200222601BB9226822F0200222608E
:101078001022B1E77546B3FBF2F002FB1033CB5CEC
:1010880005F8013D03460028F5D1B7E708681A6856
:1010980010F0800F496904D0101D1860136819609A
:1010A80007E010F0400F02F1040018601368F6D052
:1010B8001980002375462361B1E71A68111D19606C
:1010C800156800216268284600F036F808B1401B10
:1010D800606063682361002384F843309FE72369D5
:1010E8002A4639463046C0470130A2D023689B07BC
:1010F80007D5002504F11909E368039A9B1A9D4254
:1011080005DBE068039B9842B8BF184693E70123C4
:101118004A4639463046C04701308AD00135EBE7A8
:10112800002BA7D10B7804F1420584F8423065E71B
:10113800C6150008B515000810B5C9B2024490429A
:10114800034601D1002010BD1C7801308C42F6D135
:10115800184610BD10B5431E0A44914200D110BD77
:1011680011F8014B03F8014FF7E7884210B501EB7E
:10117800020303D8421E99420CD110BD9842F9D2FD
:101188008118D21AD34200D110BD13F8014D01F8CD
:10119800014DF7E711F8014B02F8014FEBE70000AA
:1011A80038B50546002943D051F8043C0C1F002BE4
:1011B800B8BFE41800F0D4F81E4A1368104633B9D3
:1011C800636014602846BDE8384000F0CAB8A342FE
:1011D8000BD921686218934201BF1A685B685218DC
:1011E800226063600460EDE713465A680AB1A242C0
:1011F800FAD919685818A0420BD120680144581828
:1012080082421960DED110685268014419605A6040
:10121800D8E702D90C232B60D4E7206821188A422A
:1012280001BF116852680918216062605C60C9E7F3
:1012380038BD00BF1401002070B5CD1C25F0030592
:1012480008350C2D38BF0C25002D064601DBA942B8
:1012580003D90C233360002070BD00F081F8234AC5
:101268001468214691B9224C23681BB9304600F016
:1012780067F820602946304600F062F8431C26D102
:101288000C233046336000F06CF8E4E70B685B1B16
:101298001AD40B2B0FD90B60CC18CD50304600F068
:1012A80060F804F10B00231D20F00700C31A1BD0BF
:1012B8005A42E25070BD8C420BBF63684B681360A2
:1012C800636018BF0C46E9E70C464968CAE7C41CC6
:1012D80024F00304A04205D0211A304600F030F86B
:1012E8000130CDD02560D9E770BD00BF14010020C2
:1012F80018010020F8B5074614460E4621B91146D4
:10130800BDE8F840FFF798BF22B9FFF749FF254627
:101318002846F8BD00F026F884420FD92146384601
:10132800FFF78AFF05460028F2D031462246FFF72C
:1013380011FF31463846FFF733FFE9E73546E7E75F
:1013480038B50023054C054608462360FFF73AF9EF
:10135800431C02D1236803B12B6038BD1C01002057
:101368007047704751F8040C0028A0F10400BCBF76
:101378000B58C018704700002E2E2F7379737465B0
:101388006D2F7372632F73746D333266312D7374DE
:10139800647065726970682F73746D3332663130AA
:1013A800785F6770696F2E63000000002E2E2F7320
:1013B800797374656D2F7372632F73746D3332662E
:1013C800312D7374647065726970682F73746D332E
:1013D80032663130785F7263632E630061626F72C8
:1013E8007428292C2065786974696E672E2E2E0062
:1013F8006173736572745F706172616D282920660C
:1014080061696C65643A2066696C652022257322DF
:101418002C206C696E652025640A00005374616392
:101428006B206672616D653A0A0000002052302018
:101438003D2020253038580A000000002052312075
:101448003D2020253038580A000000002052322064
:101458003D2020253038580A000000002052332053
:101468003D2020253038580A000000002052313233
:10147800203D20253038580A00000000204C52201A
:101488003D2020253038580A000000002050432015
:101498003D2020253038580A0000000020505352C3
:1014A800203D20253038580A000000004653522FAE
:1014B8004641523A0A0000002043465352203D203C
:1014C80020253038580A00002048465352203D2035
:1014D80020253038580A00002044465352203D2029
:1014E80020253038580A00002041465352203D201C
:1014F80020253038580A0000204D4D464152203DE5
:1015080020253038580A00002042464152203D200C
:1015180020253038580A00004D6973630A0000001E
:10152800204C522F4558435F52455455524E3D204A
:10153800253038580A0000005B48617264466175BE
:101548006C745D0A000000005B4275734661756C3F
:10155800745D0A005B55736167654661756C745DFF
:101568000A00000048656C6C6F2041524D20576F8F
:10157800726C64210000000053797374656D2063F8
:101588006C6F636B3A20257520487A0A00000000CA
:101598005365636F6E642025750A0000232D302B78
:1015A8002000686C4C00656667454647003031325C
:1015B80033343536373839414243444546003031B3
:0F15C80032333435363738396162636465660013
:1015D800785634129000002000000000000000003F
:1015E80000000000010203040607080900A24A04DB
:1015F800240000200000000000000000000000009F
:1016080000000000000000000000000000000000D2
:1016180000000000000000000000000000000000C2
:1016280000000000000000000000000000000000B2
:1016380000000000000000000000000000000000A2
:101648000000000000000000000000000000000092
:081658000000000032547698F6
:040000050800010DE1
:00000001FF
